S0190000476363426F61726450726F6A65637432332E73726563DA
S21440000010350020110440000F0440000F0440004B
S2144000100F0440000F0440000F04400000000000A2
S2144000200000000000000000000000000F04400038
S2144000300F044000000000000F0440000F04400082
S2144000400F0440000F0440000F0440000F0440001F
S2144000500F0440000F0440000F0440000F0440000F
S2144000600F0440000F044000000000000F04400052
S2144000700F0440000F0440000F0440000F044000EF
S2144000800F0440000F0440000F0440000F044000DF
S2144000900F0440000F0440000F0440000F044000CF
S2144000A00F0440000F0440000F0440000F044000BF
S2144000B00F0440000F0440000F0440000000000002
S2144000C000000000000000000000000000000000EB
S2144000D000000000000000000000000000000000DB
S2144000E000000000000000000000000000000000CB
S2144000F00000000000000000000000000F04400068
S2144001000F0440000F044000000000000000000004
S214400110000000000000000000000000000000009A
S214400120000000000000000000000000000000008A
S214400130000000000000000000000000000000007A
S214400140000000000000000010B5054C237833B9CD
S214400150044B13B10448AFF300800123237010BD55
S214400160CC040020000000002C0840000C4B43B19B
S2144001700C480D4910B5AFF300800C48036823B90E
S21440018010BD0A48036833B97047094B002BF7D0B7
S214400190BDE810401847064B002BF5D0184700BF67
S2144001A0000000002C084000D00400202C0840002E
S2144001B00000000010B5A2B01848194B9847002020
S2144001C0184B9847184CA0470028FCD0174B984728
S2144001D0174A184B9A62184CA0470028FCD00020BB
S2144001E0164B9847164B984716480D4B9847164B54
S2144001F01A68164B1344164A934201D922B010BDD2
S2144002002023009302AB0F220E211248124CA04727
S214400210BDF848101148124B9847EFE7000E2707E5
S214400220D50540004103400065034000850340007B
S214400230013F4D0E00040E4091034000DD02400099
S214400240ED0440000000270798000020C0D3BDF909
S21440025080C3C901000A0E400D00002010140E4055
S214400260F503400038B54FF40044194B5C600B2052
S214400270184DA8470C20A847174B40221A61C3F8D0
S214400280A0201A6304225A61C3F8A0205A66C3F815
S21440029090205A655A62C3F880201A6F22F00402F2
S2144002A01A675A6F22F004025A6702221A631A61CA
S2144002B0C3F8A02003F500734FF400521A631A6186
S2144002C0C3F8A0201C631C61C3F8A04038BD00BF23
S2144002D050140E40A1034000000E0E40174A136B08
S2144002E023F0700318431063936E13F0080F0AD17F
S2144002F04FF4006311498A6E12F0080F03D1013B98
S214400300F9D1012070470D4A136B23F0030343F0E5
S21440031002031363936E13F0080F0AD14FF4006381
S21440032006498A6E12F0080F05D1013BF9D101202B
S2144003307047002070470020704700BF00040E4002
S214400340012803D0054A064B1A607047044A936852
S21440035043F0254343F480139360F3E7080000A579
S21440036010140E40054B5B6913F0800F1DBF044B05
S214400370986EC0F3C0100020704700BF10140E40A7
S21440038000040E400022014B9A62704700040E4063
S214400390024B986E00F00200704700BF00040E400B
S2144003A032281ED81F280CD8114B9A690123834047
S2144003B0934318D0012303FA00F00D4B1861002038
S2144003C0704720380A4BD3F80821012383409343D3
S2144003D00BD0012303FA00F0054BC3F800010020C0
S2144003E0704701207047002070470020704700BFCC
S2144003F000040E40C369490201F4F05141F0B44193
S21440040041F4807123F4F0531943C1617047FEE70D
S21440041000B583B02A4B2B4A9A4210D02A4B284A22
S2144004209A420CD2013B9B1A23F003030433134435
S214400430244951F8040B42F8040B9A42F9D1234B55
S214400440234A9A420AD2013B9B1A23F00303043301
S2144004501344002142F8041B9342FBD11D4A22F06C
S2144004607F011D4B9960EFF31083B3FA83F35B096A
S214400470019372B6BFF35F8F0021184B1970019835
S21440048017490B6843F470030B60BFF34F8FBFF3FD
S2144004906F8F28B10121114B1970BFF35F8F62B681
S2144004A002F16042B2F5203F04D20B4A936843F013
S2144004B0005393600B4B98470B4B9847FEE700BFA3
S2144004C0000000202C084000CC0400200C05002032
S2144004D0CC0400200000400000ED00E09400002026
S2144004E088ED00E09506400049064000314B1B6B06
S2144004F003F00303012B1DD083B1022B36D02D4BC6
S2144005001B6B03F07003702B4BD02A4B1A6B2A4997
S214400510C2F302120B68D3400B607047274B5B69EF
S21440052013F0800F14BF4FF400424FF4FA42224BB0
S2144005301A60E4E71F4B1B6A13F0807F03D0204A03
S2144005401D4B1A60DBE71F4A1B4B1A60194B1B6A90
S21440055003F07003102B05D0202BD0D11A4A164B2F
S2144005601A60CCE7194A144B1A60C8E7134B5B690C
S21440057013F0800F14BF4FF400424FF4FA420E4B74
S2144005801A600C4B1B6B03F00303022BB7D1094BCD
S2144005909A6A0949C2F30C420B6802FB03330B60AC
S2144005A0ADE7054A13680A49A1FB03135B081360CD
S2144005B0704700BF00040E409800002010140E4004
S2144005C0001BB70000127A0000366E010024F400CB
S2144005D0ABAAAAAA124B984211D9124B984213D9E9
S2144005E0114B984214D9114B984215D9104B98424A
S2144005F094BF4FF004220F4A0F4B1A6070474FF0DB
S21440060080620D4B1A6070470C4A0B4B1A6070475D
S2144006100B4A094B1A6070470A4A074B1A607047E4
S214400620FF2C3101FF596202FF869303FFB3C404D7
S214400630FFE0F50500050004000A0E400001000436
S214400640000200040003000408B50C4CA0470C4B05
S2144006509847A0470B200B4CA0470C20A0470A4BBE
S21440066040221A61C3F8A0201C46084E084DA36BD2
S21440067083F04003A3633046A847F8E7650240008E
S214400680B5014000A1034000000E0E4093644100B7
S2144006900100002070B50F4E0F4D761BB61018BFE8
S2144006A0002405D0013455F8043B9847A642F9D1BA
S2144006B00A4E0B4D761B00F0A7F8B61018BF002464
S2144006C006D0013455F8043B9847A642F9D170BD90
S2144006D070BD00BF14084000140840001C084000CD
S2144006E014084000024B13B1024800F005B87047AA
S2144006F00000000005074000002301461A46184641
S21440070000F01EB838B50A4C0A4D641BA4100AD037
S21440071004F18043013B05EB8305013C55F8043961
S2144007209847002CF9D1BDE8384000F077B800BFB4
S2144007302C08400028084000704700BF704700BFA4
S2144007402DE9F8432C4D0646286898460F469146B4
S214400750FFF7F2FF294B1C68D4F84831002B3ED0F7
S2144007605A681F2A1CDC02F1010E76B103EB8201A7
S2144007700124C1F88890D3F8880194402043022E83
S214400780C3F88801C1F8088123D00232C3F804E0D8
S214400790286843F82270FFF7D1FF0020BDE8F883B1
S2144007A0174B0BB34FF4C870AFF300800346D8B175
S2144007B0D4F848210260002141600A46C4F8480146
S2144007C04FF0010EC0F88811C0F88C11002EDCD016
S2144007D0CCE7D3F88C110C43C3F88C41D5E704F52D
S2144007E0A673C4F84831BBE72868FFF7A7FF4FF069
S2144007F0FF30BDE8F88300BFC8040020040840006E
S21440080000000000A0000020F8B500BFF8BC08BCFF
S2144008109E467047E50640006D014000F8B500BFB3
S210400820F8BC08BC9E46704749014000EA
S21440082CBFF35F8F0138FBD17047000030B482B005
S21440083C049D5BB31C46036843F480330360C9B223
S21440084C41F0B441416083680193019B13F0010F62
S21440085CF9D14DB1214604EB85030D4C54F8045F99
S21440086C41F8045B9942F9D1D2B242F0B4424260AC
S21440087C83680193019B13F0010FF9D0036823F4AE
S21440088C80330360002002B030BC70470220FAE789
S21440089CFCFF3F000160704782B041608368019363
S2144008AC019B13F0010FF9D0019800F00E0002B036
S2144008BC704700BF0100000000127A0000000000E4
S2144008CC000000008C030020F40300205C04002091
S2144008DC00000000000000000000000000000000C7
S2144008EC00000000000000000000000000000000B7
S2144008FC00000000000000000000000000000000A7
S21440090C0000000000000000000000000000000096
S21440091C0000000000000000000000000000000086
S21440092C0000000000000000000000000000000076
S21440093C0000000000000000000000000000000066
S21440094C0000000000000000000000000000000056
S21440095C0000000000000000000000000000000046
S21440096C0000000000000000010000000000000035
S21440097C0E33CDAB34126DE6ECDE05000B000000FA
S21440098C0000000000000000000000000000000016
S21440099C0000000000000000000000000000000006
S2144009AC00000000000000000000000000000000F6
S2144009BC00000000000000000000000000000000E6
S210400CEC0000000000000000E8040020AB
S804400411A6
